:020000040800F2
:10600000902B00203162000861FA0008E9CF0008F7
:1060100025EC0008F198000849580108000000002C
:10602000000000000000000000000000F7FF000872
:10603000FDBA00080000000047620008C5440108DE
:106040004B6200084B6200084B6200084B6200087C
:106050004B6200084B620008DDBE000859BF000813
:1060600071BF00084B6200084B6200084B620008D9
:106070004B6200084B6200084B6200084B6200084C
:106080004B6200084B6200084B6200084B6200083C
:106090004B6200084B6200084B62000889BF000891
:1060A0004B6200084B6200084B6200084B6200081C
:1060B0004B6200084B6200084B6200084B6200080C
:1060C0004B6200084B6200084B6200084B620008FC
:1060D0004B620008755201084B620008B552010876
:1060E000F3BE00084B6200084B6200084B620008D8
:1060F0004B6200084B6200084B6200084B620008CC
:106100004B620008000000004B6200084B62000870
:10611000F5520108F5510108599800084B62000832
:106120004B6200084B6200084B6200084B6200089B
:106130004B6200084B6200084B6200084B6200088B
:106140004B62000877C000084B6200084B620008F1
:106150004B6200084B6200084B6200084B6200086B
:106160004B6200084B6200084B6200083552010880
:106170004B6200084B620008000000004B62000800
:106180004B6200084B6200080000000000000000A5
:10619000000000004B6200084B6200080000000095
:1061A000000000004B6200084B6200084B620008D0
:1061B0004B6200084B6200084B6200084B6200080B
:1061C0004B6200084B6200084B6200084B620008FB
:1061D0004B6200084B6200084B6200084B620008EB
:1061E0004B6200084B6200084B6200084B620008DB
:1061F0004B6200084B6200084B6200084B620008CB
:106200004B6200084B6200084B6200084B620008BA
:10621000000000004B620008DFF810D000F00AFB1D
:1062200000480047E15A0108AFF30080902B00209E
:106230000648804706480047FEE7FEE7FEE7FEE720
:10624000FEE7FEE7FEE7FEE7FEE7FEE7E3440108C0
:10625000196200082DE9F05F0546002092469B4632
:1062600088460646814640241BE02846414647466C
:10627000224600F02FF853465A46C01A914110D3D7
:1062800011461846224600F016F82D1A67EB010851
:106290004F4622460120002100F00DF817EB0009BF
:1062A0004E41201EA4F10104DFDC484631462A4657
:1062B0004346BDE8F09F202A04DB203A00FA02F1B1
:1062C000002070479140C2F1200320FA03F31943E4
:1062D00090407047202A04DB203A21FA02F0002186
:1062E000704721FA02F3D040C2F1200291400843E6
:1062F0001946704740EA01039B0703D009E008C92B
:10630000121F08C0042AFAD203E011F8013B00F87A
:10631000013B521EF9D27047D2B201E000F8012BC6
:10632000491EFBD270470022F6E710B513460A4615
:1063300004461946FFF7F0FF204610BD2DE9FE4F39
:10634000804681EA0300C00F0C46009021F0004116
:1063500023F00045B8EB0200A94105D24046214692
:1063600090461C460B46024623F00040104347D09F
:10637000270DC7F30A00C3F30A510290401A019097
:1063800040286BDAC3F3130040F4801B0098924658
:1063900020B10023D2EB030A63EB0B0B01985946A3
:1063A000C0F140025046FFF786FF06460D465046B4
:1063B0005946019A00F097F910EB0800614100245A
:1063C00087EA115284EAE7731A4340D0009A62B315
:1063D000019A012A4FEA075215DC001B61EB02010A
:1063E0004FF0004202EA0752CDE90042001C41F59D
:1063F000801132462B4600F0CEF903B0BDE8F08F95
:1064000040462146F9E7001B61EB0201001C41F503
:10641000801300185B412018A2F5001747EB030119
:1064200040EAD570B6196D4111E06D084FEA3606A5
:1064300045EAC0754FEA0752001B61EB0201001CE0
:1064400041F5801149084FEA3000001951413246A8
:106450002B4603B0BDE8F04F00F08EB90098012242
:1064600040000023D0EB020263EBE073009821466A
:106470004FEAE074B8EB000061EB0401E9E783F058
:1064800000435BE781F0004158E72DE9FE4F81EAC8
:10649000030404F0004421F0004100944FF0000B8D
:1064A00023F0004350EA01045ED052EA03045BD0BB
:1064B000C3F30A54C1F30A552C44A4F2F3340194F3
:1064C000A0FB0254C1F3130141F48011C3F3130381
:1064D00043F4801301FB024400FB034E840A970A35
:1064E00044EA815447EA8357A4FB076802958D0A62
:1064F00005FB07854FEA932C04FB0C542705029DEE
:106500004FEA065847EA1637B5EB08056EEB070C5D
:10651000870E920E47EA811742EA8312A7FB020117
:10652000B6EB0B0164EB00042B0D43EA0C335E1851
:1065300044EB1C50DA465146E7FB0201C5F3130455
:106540004FEA0B3343EA14534FEA0432019C43EA07
:106550000603A4F10C040294009CCDE900B400F001
:106560001AF903B0BDE8F08F00200146F9E72DE9E4
:10657000F04D81EA030404F0004B21F0004514467D
:106580004FF0000A23F0004150EA050220D054EAFF
:1065900001021DD0C5F30A570246C5F31303C1F328
:1065A0001300C1F30A5640F4801543F48013A7EB9F
:1065B0000608101BD64608F2FD3873EB050002D31F
:1065C00008F1010801E092185B41B8F1000F03DA0D
:1065D00000200146BDE8F08D00204FF480110646F2
:1065E00084460EE0171B73EB050705D3121B63EB04
:1065F000050306434CEA010C49084FEA30009218A3
:106600005B4150EA0107EDD152EA030012D082EA61
:10661000040083EA0501084305D0101BAB4106D2F4
:106620000122002306E000224FF0004302E06FF059
:10663000010253101AEB06004CEB085110EB0A0054
:1066400041EB0B01BDE8F04D00F096B80EB5C10F5F
:1066500080EAE0700844CA07002140F233438DE825
:106660000E000A460B4600F096F803B000BD0EB5CA
:1066700040F2334102910021CDE900110A460B4658
:1066800000F089F803B000BD00F0004230F0004097
:106690000AD0C10D01F56071C0F3160042EA015144
:1066A000C20840071143704700200146704701F0BF
:1066B000004330B421F0004150EA010206D00A0D37
:1066C000A2F56072C1F31301002A02DC30BC002085
:1066D0007047440F44EAC104C100E01830BC00EB2D
:1066E000C25000F012B8202A06DBCB17203A41FA3C
:1066F00002F043EAE07306E041FA02F3D040C2F14F
:10670000200291400843194670470029A8BF7047EE
:10671000401C490008BF20F00100704710B4B0FAD7
:1067200080FC00FA0CF050EA010404BF10BC704772
:1067300049B1CCF1200421FA04F411FA0CF118BF8C
:10674000012121430843A3EB0C01CB1D4FEA00615B
:106750004FEA102042BF002010BC704700EBC3502E
:1067600010440029A4BF10BC7047401C490008BF5A
:1067700020F0010010BC704710B5141E73F1000426
:1067800008DA401C41F1000192185B411A4301D123
:1067900020F0010010BD2DE9F04D92469B4611B14D
:1067A000B1FA81F202E0B0FA80F220329046FFF7AF
:1067B00082FD04460F4640EA0A0041EA0B015346B7
:1067C0005A46084313D0114653EA010019D0C8F1C4
:1067D00040025046FFF77EFD05460E46504659469C
:1067E0004246FFF768FD084305D0012004E020463B
:1067F0003946BDE8F08D0020054346EAE0762C439B
:1068000037430A986305E40AA0EB08000022FD0A5A
:1068100044EA47540A3002D500200146E9E7010561
:1068200010196941DDE9084500196941BDE8F04DDD
:10683000A2E70000064C074D06E0E06840F00103C7
:1068400094E8070098471034AC42F6D3FFF7E8FC11
:10685000F06201081063010870B58C1810F8015B34
:1068600015F0070301D110F8013B2A1106D110F8E9
:10687000012B03E010F8016B01F8016B5B1EF9D1ED
:106880002B0705D40023521E0DD401F8013BFAE773
:1068900010F8013BCB1A921C03E013F8015B01F8DE
:1068A000015B521EF9D5A142D8D3002070BD012949
:1068B00008D0C16821F00401C160816841F0040181
:1068C00081607047C16841F00401C160F5E7026F63
:1068D00022F0F052491E42EA416101677047002AE6
:1068E00004D050F8982F0A430260704750F8982F50
:1068F0008A430260704770B50F250F2909D9866950
:10690000A1F11004A400A540AE43A3401E4386613C
:1069100012E0072909D94669A1F10804A400A5409D
:10692000AE43A3401E43466106E006698C00A540C5
:10693000AE43A3401E4306611F23072A09D2446EBB
:10694000521E02EB820293409C4391400C434466EA
:1069500070BD0D2A09D2846ED21F02EB82029340D1
:106960009C4391400C43846670BDC46E0D3A02EBAB
:10697000820293409C4391400C43C46670BD002941
:1069800004D0816841F0010181607047816821F085
:10699000010181607047002904D0416841F0020183
:1069A00041607047416821F0020141607047014633
:1069B0008868400701D5012000E00020096A00290D
:1069C00000D0002070470068084201D001207047C5
:1069D0000020704710B50022C4F20102D36C43F4CA
:1069E0000053D364426822F0810323F470630C796E
:1069F0000A6822431A43426082683223C0F23F137E
:106A00009A43D1E9024323434C7942EA44021343B7
:106A10008360C26822F003034A691A43C260D0F857
:106A2000902022F0380242F02802C0F89020C26E76
:106A300022F0F052097C491E42EA4161C16610BD54
:106A400008B582680092009A22F440020092009AEF
:106A50000A4300920099816008BD30B540F284720B
:106A6000C2F2000240F21001C2F2000148780C6943
:106A700032F91030E41A01F114039D8822F8105005
:106A800032F9102022440A61401CC0B2487020280C
:106A900001D300204870D01702EBD060401140F2C3
:106AA000D472C2F2000240F6E4446043C41700EB23
:106AB00014500013906040F29602C2F20002128855
:106AC000C82462434FF47A74B2FBF4F44FF47A7240
:106AD000424392FBF4F28A814A819A8840F6E44468
:106AE0006243120B4A8088801888C880D888088141
:106AF00030BD70B540F22405C2F200052A88382165
:106B000045F6D040C0F6010006F02FF940F2C474FB
:106B1000C2F200042168C1EB802001EBE00020609C
:106B200000F5007004F11006C0F38F2030606A8811
:106B3000382145F6D040C0F6010006F016F961682C
:106B4000C1EB802001EBE000606000F50070C0F355
:106B50008F20706070BD40F21002C2F20002117806
:106B6000481C107040F2C473C2F20003D8680829B0
:106B700005D202F11401C9880844D8607047002189
:106B80001170C010002800DC002040F6E4414843AA
:106B9000C11700EB11500013410040F2D472C2F251
:106BA0000002D068091A00EBE100D060704710B510
:106BB00040F6D700C2F20000017841F0010141F037
:106BC000020141F0040121F0080141F0100141F0FF
:106BD000200121F0400141F080010170417841F035
:106BE000010141F0020141F0040141F0080121F0EE
:106BF000100141F0200141F0400121F0800141707D
:106C00000221532004F0C1FD002004F005FB002008
:106C100006F0DEF9102004F0EFFA002009F0FAF98E
:106C2000002003F07FFABDE81040002004F000BB14
:106C300010B500221146104609F017F8002211463F
:106C400010460EF050FC0021084608F0ABFF002271
:106C50001146104608F0D6FF0021084608F040FF14
:106C600000221146104608F06BFF40F6FB00C2F20E
:106C70000000017821F00701017040F62A41C2F2BC
:106C80000001488A0A22B0FBF2F040F29603C2F2F9
:106C900000031B8858434FF47A7390FBF3F080B2E3
:106CA000898AB1FBF2F200EE102ABDE81040012102
:106CB000B8EE400A0BF07ABA40F68400C2F2000047
:106CC000417821F00F010D3141700121084604F097
:106CD0005CBD704730B540F25814C2F20004207811
:106CE000010703D4810701D401060DD540F25413E6
:106CF000C2F20003191D1A78497832B1012A0AD06C
:106D00000025022A18D01D7030BD21F008006070E7
:106D10000120187030BD4CF62C00C4F2020000783F
:106D2000400960F3C30161700807F3D521F0080042
:106D300060700220187030BD40F23411C2F20001C0
:106D40000A7842F004020A7020F0080020F00200E5
:106D500020F0800020701D7030BD2DE9F04140F220
:106D60005817C2F200073878C00640F6F026C2F283
:106D70000006A7F104054FF0000407D447200DF0EA
:106D8000F5FB18B931200DF0F1FB60B16888401CAB
:106D900080B268803C2806D36C8096F8280040F0CA
:106DA000200086F828003878410701D4C0070CD0AD
:106DB0006888401C80B26880B0F5967F05D36C80EF
:106DC00016F8280F40F02000307040F24800C2F260
:106DD00000000168C82905D30460BDE8F041012026
:106DE0000DF0C4BBBDE8F08110B506200DF08DFCA0
:106DF00040F23C00C2F200000078000607D5FFF721
:106E000078FEFFF72AFEBDE81040FFF7A4BE10BDD4
:106E100010B540F23C00C2F200000078400657D5A1
:106E200040F29010C2F200000078012850D040F2E9
:106E30009210C2F200000078012849D040F294106C
:106E4000C2F200000078012842D040F26410C2F281
:106E50000000006840F26811C2F2000109680843AE
:106E600040F26C11C2F200010968084330D140F2CF
:106E70007410C2F200000068002829D140F270109E
:106E8000C2F200000068002822D140F25C10C2F279
:106E90000000007800281BD140F25D10C2F2000013
:106EA0000078002814D140F25E10C2F20000007891
:106EB00000280DD104F07AFC04F01AFD04F0C3FDA3
:106EC00004F064FD04F0E5FDBDE8104004F0BBBD36
:106ED00010BD2DE9F0410024002141F66616C2F2F2
:106EE0000006B6F84200B6F8403040F62A42C2F238
:106EF00000021788528840F64425C2F20005ED6D65
:106F0000B84216D91B1A934213DB4FF0010C40F222
:106F10008803C2F200031F7809E036F811301B1A0B
:106F2000934202DB0CFA01F31C43491CC9B2B9427B
:106F3000F3D3AC4203D02546284602F0C5FC26F820
:106F40007A5F280C7080BDE8F08110B586B040F201
:106F50003C00C2F20000007880074DD541F666146F
:106F6000C2F20004B4F84A00ADF8040040F66A41E9
:106F7000C2F20001888AADF806000A38ADF80800B0
:106F800040F2B200C2F200000390888BADF810000E
:106F9000ADF8120001208DF8140094F87400C0F3CD
:106FA00080008DF8150001A802F0F4F8002823D025
:106FB0009DF8150014F8741F60F38201217040F2EF
:106FC000F404C2F2000401280CD12078400709D44F
:106FD000032005F058FC032005F099FC207840F0D0
:106FE000040020709DF81500002805D12078410785
:106FF00002D520F00400207006B010BD10B586B098
:1070000040F23C00C2F20000007880074DD541F606
:107010006614C2F20004B4F84A00ADF8040040F669
:107020006A40C2F20000C18AADF80610818AADF84C
:10703000081040F2B401C2F200010391808BADF858
:107040001000ADF8120001208DF8140094F87600BD
:10705000C0F380008DF8150001A802F09BF800280D
:1070600023D09DF8150014F8761F60F3820121707B
:1070700040F2F604C2F2000401280CD12078400747
:1070800009D4102005F0FFFB102005F040FC20780B
:1070900040F0040020709DF81500002805D12078EC
:1070A000410702D520F00400207006B010BD10B5D5
:1070B00086B040F23C00C2F20000007880074DD557
:1070C00041F66614C2F20004B4F84A00ADF80400B8
:1070D00040F66A40C2F20000018BADF80610418B09
:1070E000ADF8081040F2B601C2F200010391808BA6
:1070F000ADF81000ADF8120001208DF8140094F8DE
:107100007800C0F380008DF8150001A802F042F865
:10711000002823D09DF8150014F8781F60F3820131
:10712000217040F2F804C2F2000401280CD120784A
:10713000400709D41D2005F0A6FB1D2005F0E7FB44
:10714000207840F0040020709DF81500002805D13B
:107150002078410702D520F00400207006B010BD51
:1071600010B586B040F23C00C2F200000078800703
:107170004ED541F66614C2F20004B4F84A00ADF8E8
:10718000040040F66A41C2F20001C88B00F10A0215
:10719000ADF80620ADF8080040F2B800C2F20000D9
:1071A0000390C88CADF81000ADF8120000208DF8E7
:1071B000140094F87400C0F3C0008DF8150001A805
:1071C00001F0E8FF002823D09DF8150014F8741F83
:1071D00060F3C301217040F2F404C2F200040128FC
:1071E0000CD12078000709D4042005F04CFB0420C2
:1071F00005F08DFB207840F0080020709DF8150008
:10720000002805D12078010702D520F00800207061
:1072100006B010BD10B586B040F23C00C2F20000CE
:10722000007880074DD541F66614C2F20004B4F828
:107230004A00ADF8040040F66A40C2F20000C18B7B
:10724000ADF80610018CADF8081040F2BA01C2F298
:1072500000010391C08CADF81000ADF812000020C1
:107260008DF8140094F87600C0F3C0008DF8150076
:1072700001A801F08FFF002823D09DF8150014F815
:10728000761F60F3C301217040F2F604C2F20004DD
:1072900001280CD12078000709D4112005F0F3FA59
:1072A000112005F034FB207840F0080020709DF894
:1072B0001500002805D12078010702D520F008002C
:1072C000207006B010BD10B586B040F23C00C2F28E
:1072D0000000007880074DD541F66614C2F2000424
:1072E000B4F84A00ADF8040040F66A40C2F200006B
:1072F000818CADF80610418CADF8081040F2BC014D
:10730000C2F200010391C08CADF81000ADF812007C
:1073100000208DF8140094F87800C0F3C0008DF8B8
:10732000150001A801F036FF002823D09DF81500B4
:1073300014F8781F60F3C301217040F2F804C2F220
:10734000000401280CD12078000709D41E2005F084
:107350009AFA1E2005F0DBFA207840F00800207031
:107360009DF81500002805D12078010702D520F0EE
:107370000800207006B010BD02F095BE10B50720C1
:107380000DF0C3F940F23C00C2F200000078800723
:1073900009D502F09AFF02F0A2FF03F030F8BDE831
:1073A000104003F01DB810BD30B585B040F23C0070
:1073B000C2F200000078000764D541F66615C2F2FB
:1073C0000005B5F86000ADF8000040F66A41C2F271
:1073D0000001888FADF802000A38ADF8040040F2D1
:1073E000CA00C2F200000290B1F84400ADF80C00EF
:1073F000ADF80E0001208DF8100095F87400C0F370
:1074000080108DF8110040F2F404C2F2000480B143
:10741000012837D1684601F0BDFE002832D09DF822
:10742000110015F8741F60F38611297001282BD004
:1074300037E0B5F86400012824D9684601F0AAFEB7
:1074400000281FD09DF8110015F8741F60F38611F5
:10745000297001280CD12078400609D4072005F0B6
:1074600012FA072005F053FA207840F0400020700F
:107470009DF81100002805D12078410602D520F0A2
:107480004000207005B030BD2078400609D40720A8
:1074900005F0F9F9072005F03AFA207840F04000AD
:1074A00020709DF811000028ECD120784106E9D524
:1074B00020F040002070E5E730B585B040F23C0098
:1074C000C2F200000078000762D541F66615C2F2EC
:1074D0000005B5F86000ADF8000040F66A40C2F261
:1074E0000000C18FADF80210818FADF8041040F29A
:1074F000CC01C2F200010291B0F84400ADF80C00DA
:10750000ADF80E0001208DF8100095F87600C0F35C
:1075100080108DF8110001F12A0480B1012837D1C3
:10752000684601F037FE002832D09DF8110015F8AA
:10753000761F60F38611297001282BD037E0B5F84B
:107540006400012824D9684601F024FE00281FD0D9
:107550009DF8110015F8761F60F386112970012837
:107560000CD12078400609D4142005F08CF91420A1
:1075700005F0CDF9207840F0400020709DF8110012
:10758000002805D12078410602D520F04000207067
:1075900005B030BD2078400609D4142005F073F9F9
:1075A000142005F0B4F9207840F0400020709DF8D8
:1075B00011000028ECD120784106E9D520F04000E8
:1075C0002070E5E730B585B040F23C00C2F2000023
:1075D0000078000761D541F66615C2F20005B5F8DE
:1075E0006000ADF8000040F6AA40C2F20000018839
:1075F000ADF802104188ADF8041040F2CE01C2F29D
:10760000000102918088ADF80C00ADF80E00012059
:107610008DF8100095F87800C0F380108DF81100F7
:1076200001F12A0480B1012837D1684601F0B2FD8A
:10763000002832D09DF8110015F8781F60F38611EC
:10764000297001282BD037E0B5F86400012824D92F
:10765000684601F09FFD00281FD09DF8110015F825
:10766000781F60F38611297001280CD1207840061C
:1076700009D4212005F007F9212005F048F92078E8
:1076800040F0400020709DF81100002805D12078BE
:10769000410602D520F04000207005B030BD2078B2
:1076A000400609D4212005F0EEF8212005F02FF93D
:1076B000207840F0400020709DF811000028ECD1A7
:1076C00020784106E9D520F040002070E5E730B58C
:1076D00085B040F23C00C2F200000078C00664D5DC
:1076E00041F66615C2F20005B5F86200ADF800007B
:1076F00040F6B041C2F20001088800F10A02ADF87C
:107700000220ADF8040040F2DC00C2F2000002905A
:107710000889ADF80C00ADF80E0000208DF81000BF
:1077200095F8750000F001008DF8110040F2F404A6
:10773000C2F2000480B1012837D1684601F02AFD69
:10774000002832D09DF8110015F8751F60F3000174
:10775000297001282BD037E0B5F86400012824D91E
:10776000684601F017FD00281FD09DF8110015F89C
:10777000751F60F30001297001280CD120780006E4
:1077800009D4082005F07FF8082005F0C0F820781B
:1077900040F0800020709DF81100002805D120786D
:1077A000010602D520F08000207005B030BD2078A1
:1077B000000609D4082005F066F8082005F0A7F8AF
:1077C000207840F0800020709DF811000028ECD156
:1077D00020780106E9D520F080002070E5E730B57B
:1077E00085B040F23C00C2F200000078C00661D5CE
:1077F00041F66615C2F20005B5F86200ADF800006A
:1078000040F6B040C2F200000188ADF80210418895
:10781000ADF8041040F2DE01C2F2000102910089CD
:10782000ADF80C00ADF80E0000208DF8100095F8B2
:10783000770000F001008DF8110001F1180480B10B
:10784000012837D1684601F0A5FC002832D09DF808
:10785000110015F8771F60F30001297001282BD063
:1078600037E0B5F86400012824D9684601F092FC9D
:1078700000281FD09DF8110015F8771F60F3000154
:10788000297001280CD16078C00709D1152004F0B7
:10789000FAFF152005F03BF8607840F001006070B9
:1078A0009DF81100002805D16078C10702D020F0B2
:1078B0000100607005B030BD6078C00709D11520A7
:1078C00004F0E1FF152005F022F8607840F0010097
:1078D00060709DF811000028ECD16078C107E9D0F4
:1078E00020F001006070E5E730B585B040F23C0063
:1078F000C2F200000078C00661D541F66615C2F2FA
:107900000005B5F86200ADF8000040F6B440C2F2E0
:1079100000004188ADF802100188ADF8041040F273
:10792000E001C2F2000102918088ADF80C00ADF8D0
:107930000E0000208DF8100095F8790000F001008D
:107940008DF8110001F1180480B1012837D1684683
:1079500001F020FC002832D09DF8110015F8791FA5
:1079600060F30001297001282BD037E0B5F86400DE
:10797000012824D9684601F00DFC00281FD09DF88D
:10798000110015F8791F60F30001297001280CD14E
:107990002078000609D4222004F075FF222004F08C
:1079A000B6FF207840F0800020709DF8110000287C
:1079B00005D12078010602D520F08000207005B0A6
:1079C00030BD2078000609D4222004F05CFF22207C
:1079D00004F09DFF207840F0800020709DF8110099
:1079E0000028ECD120780106E9D520F08000207035
:1079F000E5E730B585B040F23C00C2F20000007807
:107A0000000762D541F66615C2F20005B5F86000C0
:107A1000ADF8000040F6BA41C2F200010888ADF8A6
:107A200002000A38ADF8040040F2D000C2F20000B3
:107A300002900889ADF80C00ADF80E0001208DF819
:107A4000100095F87400C0098DF8110040F2F4049C
:107A5000C2F2000480B1012837D1684601F09AFBD8
:107A6000002832D09DF8110015F8741F60F3C7117B
:107A7000297001282BD037E0B5F86600012824D9F9
:107A8000684601F087FB00281FD09DF8110015F80B
:107A9000741F60F3C711297001280CD16078C007EA
:107AA00009D1092004F0EFFE092004F030FF6078CE
:107AB00040F0010060709DF81100002805D1607849
:107AC000C10702D020F00100607005B030BD6078C1
:107AD000C00709D1092004F0D6FE092004F017FFE1
:107AE000607840F0010060709DF811000028ECD132
:107AF0006078C107E9D020F001006070E5E730B59B
:107B000085B040F23C00C2F200000078000760D56A
:107B100041F66615C2F20005B5F86000ADF8000048
:107B200040F6BA40C2F200004188ADF80210018868
:107B3000ADF8041040F2D201C2F2000102910089B6
:107B4000ADF80C00ADF80E0001208DF8100095F88E
:107B50007600C0098DF8110001F1240480B10128DC
:107B600037D1684601F016FB002832D09DF811008D
:107B700015F8761F60F3C711297001282BD037E064
:107B8000B5F86600012824D9684601F003FB0028F7
:107B90001FD09DF8110015F8761F60F3C7112970EA
:107BA00001280CD12078000609D4162004F06BFEC1
:107BB000162004F0ACFE207840F0800020709DF884
:107BC0001100002805D12078010602D520F08000A0
:107BD000207005B030BD2078000609D4162004F0CE
:107BE00052FE162004F093FE207840F080002070B2
:107BF0009DF811000028ECD120780106E9D520F08D
:107C000080002070E5E730B585B040F23C00C2F25C
:107C100000000078000760D541F66615C2F2000545
:107C2000B5F86000ADF8000040F6BE40C2F20000BA
:107C30000188ADF802104188ADF8041040F2D4017B
:107C4000C2F2000102918088ADF80C00ADF80E0080
:107C500001208DF8100095F87800C0098DF811000A
:107C600001F1240480B1012837D1684601F092FA6D
:107C7000002832D09DF8110015F8781F60F3C71165
:107C8000297001282BD037E0B5F86600012824D9E7
:107C9000684601F07FFA00281FD09DF8110015F802
:107CA000781F60F3C711297001280CD16078C007D4
:107CB00009D1232004F0E7FD232004F028FE60789A
:107CC00040F0010060709DF81100002805D1607837
:107CD000C10702D020F00100607005B030BD6078AF
:107CE000C00709D1232004F0CEFD232004F00FFEAD
:107CF000607840F0010060709DF811000028ECD120
:107D00006078C107E9D020F001006070E5E730B588
:107D100085B040F23C00C2F200000078C00664D595
:107D200041F66615C2F20005B5F86200ADF8000034
:107D300040F6C441C2F20001088800F10A02ADF821
:107D40000220ADF8040040F2E200C2F2000002900E
:107D50000889ADF80C00ADF80E0000208DF8100079
:107D600095F87500C0F340008DF8110040F2F4045E
:107D7000C2F2000480B1012837D1684601F00AFA46
:107D8000002832D09DF8110015F8751F60F34101ED
:107D9000297001282BD037E0B5F86600012824D9D6
:107DA000684601F0F7F900281FD09DF8110015F87A
:107DB000751F60F34101297001280CD1607880079C
:107DC00009D40A2004F05FFD0A2004F0A0FD6078C9
:107DD00040F0020060709DF81100002805D1607825
:107DE000810702D520F00200607005B030BD6078D8
:107DF000800709D40A2004F046FD0A2004F087FD1C
:107E0000607840F0020060709DF811000028ECD10D
:107E100060788107E9D520F002006070E5E730B5B1
:107E200085B040F23C00C2F200000078C00661D587
:107E300041F66615C2F20005B5F86200ADF8000023
:107E400040F6C440C2F200000188ADF8021041883B
:107E5000ADF8041040F2E401C2F200010291008981
:107E6000ADF80C00ADF80E0000208DF8100095F86C
:107E70007700C0F340008DF8110001F1120480B1C9
:107E8000012837D1684601F085F9002832D09DF8E5
:107E9000110015F8771F60F34101297001282BD0DC
:107EA00037E0B5F86600012824D9684601F072F978
:107EB00000281FD09DF8110015F8771F60F34101CD
:107EC000297001280CD16078800709D4172004F0AC
:107ED000DAFC172004F01BFD607840F002006070AF
:107EE0009DF81100002805D16078810702D520F0A7
:107EF0000200607005B030BD6078800709D417209B
:107F000004F0C1FC172004F002FD607840F002008C
:107F100060709DF811000028ECD160788107E9D5E8
:107F200020F002006070E5E730B585B040F23C001B
:107F3000C2F200000078C00661D541F66615C2F2B3
:107F40000005B5F86200ADF8000040F6C840C2F286
:107F500000004188ADF802100188ADF8041040F22D
:107F6000E601C2F2000102918088ADF80C00ADF884
:107F70000E0000208DF8100095F87900C0F3400045
:107F80008DF8110001F1120480B1012837D1684643
:107F900001F000F9002832D09DF8110015F8791F82
:107FA00060F34101297001282BD037E0B5F8660055
:107FB000012824D9684601F0EDF800281FD09DF86B
:107FC000110015F8791F60F34101297001280CD1C7
:107FD0006078800709D4242004F055FC242004F0A4
:107FE00096FC607840F0020060709DF81100002857
:107FF00005D16078810702D520F00200607005B0DD
:1080000030BD6078800709D4242004F03CFC242093
:1080100004F07DFC607840F0020060709DF8110073
:108020000028ECD160788107E9D520F0020060706B
:10803000E5E710B586B040F23C00C2F200000078DF
:10804000C0074DD041F66614C2F20004B4F84000F7
:10805000ADF8040040F66A41C2F200010888ADF8AC
:1080600006000A38ADF8080040F2A600C2F200008F
:1080700003900889ADF81000ADF8120001208DF8CA
:10808000140094F8740000F001008DF8150001A8A8
:1080900001F080F8002823D09DF8150014F8741F13
:1080A00060F30001217040F2F404C2F200040128E0
:1080B0000CD12078C00709D1012004F0E4FB012095
:1080C00004F025FC207840F0010020709DF8150098
:1080D000002805D12078C10702D020F001002070CF
:1080E00006B010BD10B586B040F23C00C2F20000F0
:1080F0000078C0074DD041F66614C2F20004B4F80F
:108100004000ADF8040040F66A40C2F20000418829
:10811000ADF806100188ADF8081040F2A801C2F2CF
:10812000000103910089ADF81000ADF812000120A4
:108130008DF8140094F8760000F001008DF8150019
:1081400001A801F027F8002823D09DF8150014F8A5
:10815000761F60F30001217040F2F604C2F20004C1
:1081600001280CD12078C00709D10E2004F08BFB28
:108170000E2004F0CCFB207840F0010020709DF828
:108180001500002805D12078C10702D020F0010099
:10819000207006B010BD10B586B040F23C00C2F2AF
:1081A00000000078C0074DD041F66614C2F200040A
:1081B000B4F84000ADF8040040F66A40C2F2000096
:1081C0008188ADF80610C188ADF8081040F2AA0108
:1081D000C2F2000103910089ADF81000ADF8120061
:1081E00001208DF8140094F8780000F001008DF85B
:1081F000150001A800F0CEFF002823D09DF815003F
:1082000014F8781F60F30001217040F2F804C2F204
:10821000000401280CD12078C00709D11B2004F0EC
:1082200032FB1B2004F073FB207840F0010020702B
:108230009DF81500002805D12078C10702D020F054
:108240000100207006B010BD10B586B040F23C00B1
:10825000C2F20000007800074DD541F66614C2F264
:108260000004B4F86800ADF8040040F6E241C2F240
:1082700000010888821CADF80620ADF8080040F225
:10828000E800C2F2000003900889ADF81000ADF8D4
:10829000120000208DF8140094F87500C0F300104F
:1082A0008DF8150001A800F075FF002823D09DF877
:1082B000150014F8751F60F30411217040F2F404E6
:1082C000C2F2000401280CD16078C00609D40D2048
:1082D00004F0D9FA0D2004F01AFB607840F0100089
:1082E00060709DF81500002805D16078C10602D5A0
:1082F00020F01000607006B010BD10B586B040F2DE
:108300003C00C2F20000007800074DD541F666142B
:10831000C2F20004B4F86800ADF8040040F6E24090
:10832000C2F200000188ADF806104188ADF80810CF
:1083300040F2EA01C2F2000103910089ADF8100099
:10834000ADF8120000208DF8140094F87700C0F307
:1083500000108DF8150001A800F01CFF002823D0A4
:108360009DF8150014F8771F60F30411217040F296
:10837000F604C2F2000401280CD16078C00609D4CA
:108380001A2004F080FA1A2004F0C1FA607840F054
:10839000100060709DF81500002805D16078C106B6
:1083A00002D520F01000607006B010BD10B586B088
:1083B00040F23C00C2F20000007800074DD541F6C3
:1083C0006614C2F20004B4F86800ADF8040040F688
:1083D000E640C2F200004188ADF806100188ADF811
:1083E000081040F2EC01C2F2000103918088ADF860
:1083F0001000ADF8120000208DF8140094F87900F8
:10840000C0F300108DF8150001A800F0C3FE00288D
:1084100023D09DF8150014F8791F60F30411217022
:1084200040F2F804C2F2000401280CD16078C006C2
:1084300009D4272004F027FA272004F068FA60788E
:1084400040F0100060709DF81500002805D160789C
:10845000C10602D520F01000607006B010BD10B546
:1084600086B040F23C00C2F200000078C0074ED057
:1084700041F66614C2F20004B4F84200ADF80400FC
:1084800040F66A41C2F20001488900F10A02ADF8E3
:108490000620ADF8080040F2AC00C2F200000390E4
:1084A000488AADF81000ADF8120000208DF81400D5
:1084B00094F87400C0F340008DF8150001A800F096
:1084C00069FE002823D09DF8150014F8741F60F38E
:1084D0004101217040F2F404C2F2000401280CD1E1
:1084E0002078800709D4022004F0CDF9022004F09E
:1084F0000EFA207840F0020020709DF81500002848
:1085000005D12078810702D520F00200207006B046
:1085100010BD10B586B040F23C00C2F200000078F9
:10852000C0074DD041F66614C2F20004B4F8420010
:10853000ADF8040040F66A40C2F200004189ADF88F
:1085400006108189ADF8081040F2AE01C2F20001B8
:108550000391408AADF81000ADF8120000208DF8AC
:10856000140094F87600C0F340008DF8150001A8BF
:1085700000F010FE002823D09DF8150014F8761F97
:1085800060F34101217040F2F604C2F200040128B8
:108590000CD12078800709D40F2004F074F90F2043
:1085A00004F0B5F9207840F0020020709DF8150025
:1085B000002805D12078810702D520F00200207024
:1085C00006B010BD10B586B040F23C00C2F200000B
:1085D0000078C0074DD041F66614C2F20004B4F82A
:1085E0004200ADF8040040F66A40C2F20000018A81
:1085F000ADF80610C189ADF8081040F2B001C2F222
:1086000000010391408AADF81000ADF8120000207F
:108610008DF8140094F87800C0F340008DF8150030
:1086200001A800F0B7FD002823D09DF8150014F82C
:10863000781F60F34101217040F2F804C2F2000497
:1086400001280CD12078800709D41C2004F01BF9E4
:108650001C2004F05CF9207840F0020020709DF8A6
:108660001500002805D12078810702D520F00200EE
:10867000207006B010BD10B540F23C00C2F2000000
:108680004078400607D5FEF725FBFEF722FBBDE844
:108690001040FEF762BB10BD10B541F24850C2F267
:1086A000000000F00EF841F25260C2F2000000F04B
:1086B00087F841F25C70C2F20000BDE8104000F0A3
:1086C000FEB82DE9F04704466078002814D0002554
:1086D00001274FF42056C4F20106012811D040F2C0
:1086E0009409C2F2000940F29018C2F20008022870
:1086F0002BD0032841D065702046BDE8F0470AF032
:1087000096BA306820F400703060204601F07CFD9D
:10871000207A58B994F8090103280AD006280CD009
:1087200010280ED0A5712772082060720220607098
:10873000E2E720460BF022F8F8E720460BF06CF851
:10874000F4E720460BF0A4F8F0E794F809010328B9
:1087500004D0062806D0102807D103E020460AF0EE
:1087600049FC02E020460AF0B6FF89F80050306864
:1087700040F00400306088F8007098F8010000288C
:10878000BAD0B8F80E00401C80B2A8F80E00FF283E
:10879000B2D9A8F80E506570A572E572257365739D
:1087A00088F801502570306840F002003060306871
:1087B00040F40070306088F8005089F800709BE742
:1087C0002DE9F04704466078002814D000250127E1
:1087D0004FF41056C4F20106012811D040F294095A
:1087E000C2F2000940F29018C2F2000802282BD011
:1087F000032841D065702046BDE8F0470AF0E7BA8B
:10880000306820F400703060204601F0FDFC207AD2
:1088100058B994F8090103280AD006280CD010286A
:108820000ED0A57127720820607202206070E2E706
:1088300020460AF0A3FFF8E720460AF0EDFFF4E730
:1088400020460BF025F8F0E794F80901032804D03E
:10885000062806D0102807D103E020460AF0CAFBFC
:1088600002E020460AF037FF89F80050306840F0F7
:108870000400306088F8027098F803000028BAD02D
:10888000B8F81000401C80B2A8F81000FF28B2D938
:10889000A8F810506570A572E5722573657388F8A5
:1088A00003502570306840F002003060306840F4BA
:1088B0000070306088F8025089F800709BE72DE95D
:1088C000F04704466078002815D000254FF4E056A4
:1088D0004FF00109C4F20106012813D04FF44048BB
:1088E000C4F2020840F29017C2F2000702282ED00C
:1088F000032848D0657020460AF039FBBDE8F047F0
:108900000AF0A0BA306820F400703060204601F010
:108910007BFC207A60B994F8090103280BD0062863
:108920000DD010280FD0A57184F80890082060722F
:1089300002206070DFE720460AF020FFF8E72046BB
:108940000AF06AFFF4E720460AF0A2FFF0E794F885
:108950000901032804D0062806D0102807D103E017
:1089600020460AF047FB02E020460AF0B4FEB8F8C1
:10897000300020F48050A8F83000306840F0040047
:10898000306087F8049078790028B4D0788A401C49
:1089900080B27882FF28AED97D826570A572E572BB
:1089A000257365737D712570306840F0020030607A
:1089B000306840F4007030603D71B8F8300040F429
:1089C0008050A8F8300096E7704710B504F00DFB12
:1089D000BDE8104001F0F8BD10B586B040F23C0093
:1089E000C2F20000007840074FD541F66614C2F28B
:1089F0000004B4F86400ADF8040040F66A41C2F225
:108A00000001088DADF806000A38ADF8080040F204
:108A1000BE00C2F200000390088EADF8100000F610
:108A2000B830ADF8120001208DF8140094F87400ED
:108A3000C0F300108DF8150001A800F0ABFB002872
:108A400023D09DF8150014F8741F60F304112170F1
:108A500040F2F404C2F2000401280CD12078C006D0
:108A600009D4052003F00FFF052003F050FF207804
:108A700040F0100020709DF81500002805D12078E6
:108A8000C10602D520F01000207006B010BD10B550
:108A900086B040F23C00C2F20000007840074FD59B
:108AA00041F66614C2F20004B4F86400ADF80400A4
:108AB00040F66A40C2F20000418DADF80610018D0B
:108AC000ADF8081040F2C001C2F200010391008E1F
:108AD000ADF8100000F6B830ADF8120001208DF8A6
:108AE000140094F87600C0F300108DF8150001A86A
:108AF00000F050FB002823D09DF8150014F8761FD5
:108B000060F30411217040F2F604C2F2000401285F
:108B10000CD12078C00609D4122003F0B4FE122034
:108B200003F0F5FE207840F0100020709DF815004D
:108B3000002805D12078C10602D520F01000207051
:108B400006B010BD10B586B040F23C00C2F2000085
:108B5000007840074FD541F66614C2F20004B4F81D
:108B60006400ADF8040040F66A40C2F20000818D56
:108B7000ADF80610C18DADF8081040F2C201C2F286
:108B800000010391008EADF8100000F6B830ADF88A
:108B9000120001208DF8140094F87800C0F3001042
:108BA0008DF8150001A800F0F5FA002823D09DF8F3
:108BB000150014F8781F60F30411217040F2F804D6
:108BC000C2F2000401280CD12078C00609D41F206D
:108BD00003F059FE1F2003F09AFE207840F01000A9
:108BE00020709DF81500002805D12078C10602D517
:108BF00020F01000207006B010BD10B586B040F215
:108C00003C00C2F200000078400751D541F66614DE
:108C1000C2F20004B4F86600ADF8040040F66A4100
:108C2000C2F20001488EADF806000A38ADF808001F
:108C300040F2C400C2F2000003904FF4FA70ADF8A5
:108C40001000488F00F6B830ADF8120001208DF802
:108C5000140094F87400C0F340108DF8150001A8BA
:108C600000F098FA002823D09DF8150014F8741F1E
:108C700060F34511217040F2F404C2F200040128AF
:108C80000CD12078800609D4062003F0FCFD0620D4
:108C900003F03DFE207840F0200020709DF8150084
:108CA000002805D12078810602D520F02000207010
:108CB00006B010BD10B586B040F23C00C2F2000014
:108CC0000078400750D541F66614C2F20004B4F8AB
:108CD0006600ADF8040040F66A40C2F20000818EE2
:108CE000ADF80610418EADF8081040F2C601C2F290
:108CF000000103913221ADF81010408F00F6B8301A
:108D0000ADF8120001208DF8140094F87600C0F33D
:108D100040108DF8150001A800F03CFA002823D07F
:108D20009DF8150014F8761F60F34511217040F28C
:108D3000F604C2F2000401280CD12078800609D480
:108D4000132003F0A0FD132003F0E1FD207840F094
:108D5000200020709DF81500002805D1207881069C
:108D600002D520F02000207006B010BD10B586B0EE
:108D700040F23C00C2F20000007840074FD541F6B7
:108D80006614C2F20004B4F86600ADF8040040F6C0
:108D90006A40C2F20000C18EADF80610018FADF836
:108DA000081040F2C801C2F2000103910121ADF8A0
:108DB0001010408F00F6B830ADF812008DF8141086
:108DC00094F87800C0F340108DF8150001A800F069
:108DD000E1F9002823D09DF8150014F8781F60F3FE
:108DE0004511217040F2F804C2F2000401280CD1B0
:108DF0002078800609D4202003F045FD202003F0D0
:108E000086FD207840F0200020709DF81500002895
:108E100005D12078810602D520F02000207006B010
:108E200010BD10B504200BF070FC00281FD040F2DC
:108E30003C04C2F200042078C00718D003F02BF8DD
:108E4000FFF7C2FD07F0B7FF03F052FF02F0EAFEA2
:108E500040F23410C2F200000078C0F380012078A4
:108E6000BDE8104000F00100052202F0ADBE10BDCB
:108E700010B586B040F23C00C2F200000078C00697
:108E80004DD541F66614C2F20004B4F85E00ADF8A8
:108E9000040040F6CE41C2F200010888ADF8060099
:108EA0000A38ADF8080040F2D600C2F20000039084
:108EB0000889ADF81000ADF8120001208DF81400FB
:108EC00094F87500C0F340108DF8150001A800F06B
:108ED00061F9002823D09DF8150014F8751F60F380
:108EE0004511217040F2F404C2F2000401280CD1B3
:108EF0006078400709D40B2003F0C5FC0B2003F079
:108F000006FD607840F0040060709DF815000028B0
:108F100005D16078410702D520F00400607006B0EA
:108F200010BD10B586B040F23C00C2F200000078DF
:108F3000C0064DD541F66614C2F20004B4F85E00D6
:108F4000ADF8040040F6CE40C2F200004188ADF812
:108F500006100188ADF8081040F2D801C2F20001F5
:108F600003910089ADF81000ADF8120001208DF8D2
:108F7000140094F87700C0F340108DF8150001A894
:108F800000F008F9002823D09DF8150014F8771F89
:108F900060F34511217040F2F604C2F2000401288A
:108FA0000CD16078400709D4182003F06CFC18201D
:108FB00003F0ADFC607840F0040060709DF815008F
:108FC000002805D16078410702D520F004006070C8
:108FD00006B010BD10B586B040F23C00C2F20000F1
:108FE0000078C0064DD541F66614C2F20004B4F80C
:108FF0005E00ADF8040040F6D240C2F200000188E5
:10900000ADF806104188ADF8081040F2DA01C2F25E
:10901000000103918088ADF81000ADF81200012026
:109020008DF8140094F87900C0F340108DF8150005
:1090300001A800F0AFF8002823D09DF8150014F81F
:10904000791F60F34511217040F2F804C2F2000468
:1090500001280CD16078400709D4252003F013FCC7
:10906000252003F054FC607840F0040060709DF807
:109070001500002805D16078410702D520F00400D2
:10908000607006B010BD2DE9F05F40F61A35C2F2EF
:10909000000528880024002802D02C8007F00CFA54
:1090A000688810B16C8007F0FEF940F25E11C2F2E0
:1090B000000191F800B040F26412C2F200021068A0
:1090C0004BEA000B40F26813C2F2000318685BEA37
:1090D000000B40F26C16C2F2000640F25C17C2F2BE
:1090E000000740F25D1CC2F2000C40F27018C2F2A0
:1090F000000840F27419C2F2000940F2781AC2F274
:10910000000A41F26440C2F200002CD1D6F800B04F
:10911000BBF1000F27D197F800B0BBF1000F22D1AF
:109120009CF800B0BBF1000F1DD1D8F800B0BBF126
:10913000000F18D1D9F800B0BBF1000F13D1DAF845
:1091400000B0BBF1000F0ED190F874B0BBF1000F6E
:1091500009D190F875B0BBF1000F04D190F876B04A
:10916000BBF1000F14D04FF0010BA5F800B0146054
:109170001C603460C9F80040C8F800403C708CF8AE
:1091800000400C70CAF8004000F8744F44708470BE
:10919000BDE8F09F30B5037C012B03D8418882885D
:1091A000914201D2002030BD447CC3F1010500236F
:1091B000AC4215D102888A420CD381680A88521CBD
:1091C00092B20A8081898A4221D381680B80017C16
:1091D00041741CE081680888C8B1401E088016E010
:1091E000018891420ED881680A88521C92B20A8086
:1091F000C1898A420BD381680B80017CC1F10101D6
:10920000417404E08168088808B1401E088001208C
:1092100030BD10B501200BF078FA40F23C04C2F2E8
:109220000004607840071AD509F092FA07F079FE39
:1092300003F06FFD6078C0F3800009F059FA41F641
:109240004420C2F20000B0F88E00002807D040F29F
:109250004010C2F20000017821F00101017010BD40
:10926000FFF71ABA2DE9F04140F64427C2F2000791
:10927000B7F8A800012540F22C04C2F2000401282E
:1092800004D1A07810B9A57005F0B7F940F23C0000
:10929000C2F200004078000610D52078002678B190
:1092A00040F25815C2F20005012812D0022805D15B
:1092B0002878000602D401F079F92670BDE8F08123
:1092C0006078401CC0B260700228F7D366702570C9
:1092D000F4E797F89800C007F0D00D200BF046F99E
:1092E00040F23410C2F20000017821F00401017054
:1092F000287840F08000287002202070DEE740F2DD
:109300003C00C2F200000078C00719D040F24401CE
:10931000C2F200010888401C80B2088064280FD384
:109320004CF63000C4F20200018821F040010180B7
:109330004CF23040C4F20200018841F00801018083
:10934000704730B540F23C01C2F20001087820F0CD
:1093500020000870A1F10C02137840F20200C2F262
:1093600000000478A34205D000781070087840F01F
:1093700020000870087820F001000870087820F0BC
:1093800002000870087820F004000870087820F0C7
:1093900008000870087820F01000087040F20803F8
:1093A000C2F2000314691D680020AC4246D01B685D
:1093B00013615378052B00D3507053785C1C5470A4
:1093C000052B3BD246F21034C0F60104D4E803F07A
:1093D0000B7843F001030B7030E093785B1C9370C3
:1093E0000B7843F002030B7028E0D3785B1CD3703A
:1093F0000B7843F004030B7020E013795B1C1371AE
:1094000053795B1C537193795B1C9371D3795B1C0B
:10941000D371137A5B1C13720B7843F008030B7043
:109420000CE0537A5B1C5372937A5B1C9372D37A71
:109430005B1CD3720B7843F010030B700B7823F096
:1094400040030B709378052B04D390700B7843F096
:1094500040030B700B7823F080030B70D3780A2B3A
:1094600004D3D0700B7843F080030B704B7823F05B
:1094700001034B704B7823F002034B704B7823F0C1
:1094800004034B704B7823F008034B704B7823F0A8
:1094900010034B701379142B04D310714B7843F0E5
:1094A00001034B705379142B04D350714B7843F064
:1094B00002034B709379142B04D390714B7843F0D3
:1094C00004034B70D379142B0ED3D0714B7843F037
:1094D00008034B704FF44044C4F20204238EDD12A3
:1094E0006D1C65F3CB232386137A142B04D31072DF
:1094F0004B7843F010034B704B7823F020034B70F4
:109500004B7823F040034B704B7823F080034B7073
:10951000537A642B04D350724B7843F020034B7082
:10952000937A642B04D390724B7843F040034B70D2
:10953000D37A642B04D3D072487840F0800048700E
:1095400030BD10B540F29614C2F200042078012814
:1095500016D10A200CF003FA00202070BFF34F8FC1
:109560004EF60C50CEF200000168042201F4E061D6
:10957000C0F2FA5211430160BFF34F8F00BFFDE705
:1095800010BD10B586B040F23C00C2F20000007879
:10959000C0064FD541F66614C2F20004B4F8480084
:1095A000ADF8040040F6D841C2F200010888ADF8D9
:1095B00006000A38ADF8080040F2EE00C2F20000E2
:1095C0000390088900F57A70ADF81000ADF812002C
:1095D00001208DF8140094F87500C0F380008DF818
:1095E000150001A8FFF7D6FD002823D09DF815002F
:1095F00014F8751F60F38201217040F2F404C2F286
:10960000000401280CD16078000709D40C2003F075
:109610003AF90C2003F07BF9607840F008006070A4
:109620009DF81500002805D16078010702D520F0CB
:109630000800607006B010BD10B586B040F23C0066
:10964000C2F200000078C0064FD541F66614C2F29F
:109650000004B4F84800ADF8040040F6D840C2F267
:1096600000004188ADF806100188ADF8081040F2FE
:10967000F001C2F200010391008900F57A70ADF8A3
:109680001000ADF8120001208DF8140094F8770056
:10969000C0F380008DF8150001A8FFF77BFD0028BE
:1096A00023D09DF8150014F8771F60F38201217014
:1096B00040F2F604C2F2000401280CD160780007E1
:1096C00009D4192003F0DFF8192003F020F960789D
:1096D00040F0080060709DF81500002805D1607802
:1096E000010702D520F00800607006B010BD10B56B
:1096F00086B040F23C00C2F200000078C00652D5AD
:1097000041F66614C2F20004B4F84800ADF8040053
:1097100040F6DC40C2F200000188ADF80610418836
:10972000ADF8081040F2F201C2F200010391808806
:1097300000F57A70ADF81000ADF8120001208DF838
:10974000140094F87900C0F380008DF8150001A88A
:10975000FFF720FD002826D09DF8150014F8791F8A
:1097600060F38201217040F2F804C2F20004012883
:109770000FD1607800070CD4262003F084F826204F
:1097800003F0C5F811200AF0F1FE607840F00800FF
:1097900060709DF81500002805D16078010702D59A
:1097A00020F00800607006B010BD10B503200AF06C
:1097B000ACFF00284FD0FEF73CFCFEF793FCFEF711
:1097C000EAFCFEF74CFEFEF7A4FEFEF7FBFEFDF7FB
:1097D000BCFBFDF713FCFDF76AFCFDF7C1FCFDF7D0
:1097E00019FDFDF770FDFFF743FBFFF79AFBFFF74D
:1097F000F1FBFFF7C6FEFFF71FFFFFF778FFFFF74C
:10980000FCF9FFF757FAFFF7B1FAFFF7E5F8FFF7B2
:109810003EF9FFF797F9FEF717FDFEF76EFDFEF72D
:10982000C5FDFEF7E6F8FEF76AF9FEF7ECF9FEF77C
:109830006EFAFEF7F4FAFEF777FBFDF7B5FDFDF7DC
:109840003BFEFDF7BFFEFDF742FFFDF7C8FFBDE899
:109850001040FEF749B810BD70B54FF470554FF485
:109860008034C4F20005214628460BF050F9002848
:1098700029D0214628460BF0B3F840F20000C2F28E
:1098800000000178491CC9B2017002291BD30022D3
:1098900002708178491C8170817802290AD3827014
:1098A0004178491C41708168491C816041780529D3
:1098B00000D34270C178491CC9B2C170C82902D313
:1098C000C2700121017170BD6FF07F4188420CD2DE
:1098D000020C40F6EB01C2F200010A70020A4A7063
:1098E00088700321672001F050BF704701807047E6
:1098F000FEE710B5002041F6E814C2F200046060F3
:109900002060A0604FF40020E06041F66611C2F2D2
:109910000001B1F84A00020A84F8242084F82500E6
:10992000B1F866004FF6FF72002809D000EB800006
:1099300002EA4000C0F5004080B240F4004005E07B
:10994000B1F8640000EB800002EA4000020A04F86B
:10995000262F6070B1F86C00010AA170E07006213A
:1099600041F60C20C2F2000009F0D8FE010A217174
:10997000607141F6E810C2F20000BDE8104000F04E
:109980006ABB10B5012041F6F414C2F2000444F899
:10999000080C002044F80C0C44F8040C4FF4002090
:1099A000206041F6CE11C2F20001C888020A227678
:1099B00060764889020AA276E0760888010A217753
:1099C0006077062104F1180009F0A8FE010AA177CA
:1099D000E077A4F10C00BDE8104000F03CBB10B5EE
:1099E000022041F6F414C2F2000444F8080C0020EE
:1099F00044F80C0C44F8040C4FF40020206041F6AD
:109A0000DE11C2F200014888020A22766076888858
:109A1000020AA276E0760888010A2177607706219B
:109A200004F1180009F07AFE010AA177E077A4F1A9
:109A30000C00BDE8104000F00EBB10B5032041F64D
:109A4000F414C2F2000444F8080C002044F80C0C92
:109A500044F8040C4FF40020206040F23C10C2F2A5
:109A600000000068C0F30900010A21766076122127
:109A7000A1763420E07621776077062104F1180082
:109A800009F04CFE010AA177E077A4F10C00BDE8D3
:109A9000104000F0E0BA10B5042041F6E814C2F21C
:109AA0000004606000202060A0604FF40020E060AF
:109AB00040F28800C2F20000007884F8240041F2ED
:109AC0003050C2F20000007D002801D0012000E0EB
:109AD000002004F8250F41F6C611C2F200010888E3
:109AE000020A6270A0704888010AE17020710621A4
:109AF00041F60C20C2F2000009F010FE010A61716B
:109B0000A07141F6E810C2F20000BDE8104000F07C
:109B1000A2BA10B5052041F6F414C2F2000444F8CC
:109B2000080C002044F80C0C44F8040C4FF40021FD
:109B3000216041F66611C2F20001B1F86A100A0A0A
:109B400022766176A076E07620776077062104F1B0
:109B5000180009F0E3FD010AA177E077A4F10C00F9
:109B6000BDE8104000F077BA10B5062041F6F414B5
:109B7000C2F2000444F8080C002044F80C0C44F82D
:109B8000040C4FF40021216020766076A076E07608
:109B900020776077062104F1180009F0BFFD010A63
:109BA000A177E077A4F10C00BDE8104000F053BAB3
:109BB00010B5072041F6F414C2F2000444F8080C72
:109BC000002044F80C0C44F8040C4FF400202060F2
:109BD00041F66611C2F200010888020A2276607618
:109BE0004888020AA276E0768888010A21776077A1
:109BF000062104F1180009F091FD010AA177E07730
:109C0000A4F10C00BDE8104000F025BA10B5082002
:109C100041F6F414C2F2000444F8080C002044F8A1
:109C20000C0C44F8040C4FF40020206041F666113F
:109C3000C2F20001C888020A227660760889020A08
:109C4000A276E0764889010A21776077062104F13F
:109C5000180009F063FD010AA177E077A4F10C0078
:109C6000BDE8104000F0F7B910B5092041F6F41432
:109C7000C2F2000444F8080C002044F80C0C44F82C
:109C8000040C4FF40020206041F66611C2F200017E
:109C90008889020A22766076C889020AA276E0766E
:109CA000088A010A21776077062104F1180009F07B
:109CB00035FD010AA177E077A4F10C00BDE8104062
:109CC00000F0C9B910B50A2041F6F414C2F200043C
:109CD00044F8080C002044F80C0C44F8040C4FF431
:109CE0000020206041F66611C2F20001488A020A93
:109CF00022766076888A020AA276E076C88A010A0D
:109D000021776077062104F1180009F007FD010AA8
:109D1000A177E077A4F10C00BDE8104000F09BB9FA
:109D200010B50B2041F6F414C2F2000444F8080CFC
:109D3000002044F80C0C44F8040C4FF40020206080
:109D400041F66611C2F20001088B020A22766076A3
:109D5000488B020AA276E076888B010A2177607729
:109D6000062104F1180009F0D9FC010AA177E07777
:109D7000A4F10C00BDE8104000F06DB910B50C2046
:109D800041F6F414C2F2000444F8080C002044F830
:109D90000C0C44F8040C4FF40020206041F66611CE
:109DA000C2F20001C88B020A22766076088C020A91
:109DB000A276E076488C010A21776077062104F1CB
:109DC000180009F0ABFC010AA177E077A4F10C00C0
:109DD000BDE8104000F03FB910B50D2041F6F41475
:109DE000C2F2000444F8080C002044F80C0C44F8BB
:109DF000040C4FF40020206041F66611C2F200010D
:109E0000888C020A22766076C88C020AA276E076F6
:109E1000088D010A21776077062104F1180009F006
:109E20007DFC010AA177E077A4F10C00BDE81040A9
:109E300000F011B910B50E2041F6F414C2F200047E
:109E400044F8080C002044F80C0C44F8040C4FF4BF
:109E50000020206041F66611C2F20001488D020A1E
:109E600022766076888D020AA276E076C88D010A95
:109E700021776077062104F1180009F04FFC010AF0
:109E8000A177E077A4F10C00BDE8104000F0E3B842
:109E900010B50F2041F6F414C2F2000444F8080C87
:109EA000002044F80C0C44F8040C4FF4002020600F
:109EB00041F66611C2F20001088E020A227660762F
:109EC000488E020AA276E076888E010A21776077B2
:109ED000062104F1180009F021FC010AA177E077BE
:109EE000A4F10C00BDE8104000F0B5B810B510208A
:109EF00041F6F414C2F2000444F8080C002044F8BF
:109F00000C0C44F8040C4FF40020206041F666115C
:109F1000C2F20001C88E020A22766076088F020A19
:109F2000A276E076488F010A21776077062104F156
:109F3000180009F0F3FB010AA177E077A4F10C0007
:109F4000BDE8104000F087B810B5112041F6F414B8
:109F5000C2F2000444F8080C002144F80C1C44F838
:109F6000041C4FF40020206041F66612C2F2000289
:109F7000908F030A23766076D08F020AA276E0766D
:109F800021776177062104F1180009F0C7FB010A67
:109F9000A177E077A4F10C00BDE8104000F05BB8B9
:109FA0004FF4F87141F6F410C2F2000040F8081CBA
:109FB000002140F80C1C40F8041C4FF40021016003
:109FC00007220276D02141768276C17641F666116B
:109FD000C2F20001B1F868104FF6FF7201EB810187
:109FE00002EA41010A0A027741770C3840F2C013B5
:109FF000C2F20003197800290BD000221A700A0A55
:10A0000000F82A2F417041F6E810C2F2000000F07B
:10A0100022B80122F2E7012141F6F410C2F2000059
:10A0200040F8081C002240F80C2C40F8042CCA040C
:10A030000260017602214176032181760421C176F6
:10A040000521017706214177072181770821C17712
:10A050000C38AFF300800146002000F021B910B5A4
:10A0600040F24414C2F2000404F10C0061788078DC
:10A07000002905D0012902D1002800D1607010BD4F
:10A080000028FCD040F23410C2F20000017821F028
:10A09000040101700D200AF069FA18200AF066FA2E
:10A0A0000120607010BD10B540F23C10C2F20000FB
:10A0B0000078C00709D140F24414C2F200042079AC
:10A0C00020B1012808D00020207110BD002003F02D
:10A0D00033FE0120207110BDFFF7C1FFBDE8104025
:10A0E000AFF3008010B540F24412C2F20002917842
:10A0F00002F10C0440F25813C2F200031878002950
:10A1000007D0012904D1000602D40020A07090706D
:10A1100010BDA1780029FBD040F08000187001200C
:10A12000907010BD40F68401C2F20001022805D1F2
:10A1300091F8542022F0010281F8542011F8512F97
:10A1400060F301020A700421512001F01EBB0000DF
:10A1500040B101280ED10949097811B90121074AF6
:10A16000117008E005490978012902D10021034A4C
:10A17000117000E000BF00BF70470000FC0200202B
:10A1800040B101280ED10949097811B90121074AC6
:10A19000117008E005490978012902D10021034A1C
:10A1A000117000E000BF00BF70470000D80200201F
:10A1B000002802D00320FFF7B5BF0020FFF7B2BF91
:10A1C00040B101280ED10949097811B90121074A86
:10A1D000117008E005490978012902D10021034ADC
:10A1E000117000E000BF00BF704700009C0200201B
:10A1F00040F6F100C2F20000017841F00401017064
:10A2000001216D2001F0C1BA70B504462078801E8E
:10A2100080B221188A7AC97A02EB01218DB2C1B2CB
:10A2200004F10A0009F07AFA01460020A94201D19E
:10A23000207270BDA071012020720220607270BD7A
:10A2400070B50026012008F05DF913480089124915
:10A2500011F81040114AB2F88810B2F8860004F0E4
:10A26000E2FCB0F5FA7F05D80C48B0F88800B0F5EC
:10A27000FA7F02DA2646304670BD02F065FE0546DA
:10A280002146284604F0CFFC1E2801D32E4600E0CC
:10A29000264626463046EFE7141B0020441A0020CD
:10A2A00001F12402002807D001280BD14FF4A84067
:10A2B000C4F2000001F046BF4FF4B040C4F2000009
:10A2C00001F040BF70477047704700B5FFF7FBFFD4
:10A2D000FFF7FAFF5DF804EBAFF30080704740F240
:10A2E000C111C2F200010878800778D540F212103F
:10A2F000C2F200000278521C027041F61420C2F231
:10A30000000040680122B2EBD01F68D100F07F024C
:10A31000C81C122A5FD246F21533C0F60103D3E8F7
:10A3200002F0027842F00202027054E0027842F039
:10A33000040202704FE0027842F0080202704AE024
:10A34000027842F01002027045E0027842F02002EA
:10A35000027040E0027842F0400202703BE0027876
:10A3600042F08002027036E0427842F00102427010
:10A3700031E0427842F0020242702CE0427842F032
:10A380000402427027E0427842F00802427022E064
:10A39000427842F0100242701DE0427842F0200202
:10A3A000427018E0427842F04002427013E0427876
:10A3B00042F0800242700EE0827842F00102827028
:10A3C00009E0827842F00202827004E007E08278BD
:10A3D00042F004028270087820F002000870704792
:10A3E00040F2C011C2F200014888401C80B248808F
:10A3F000322803D300204880FFF7D2BD704740F2D7
:10A40000C410C2F2000001680178890705D50178FF
:10A4100021F002010170FFF76CBA0178490705D5F8
:10A42000017821F004010170FFF7ABBA0178090748
:10A4300005D5017821F008010170FFF7D0BA017845
:10A44000C90605D5017821F010010170FFF7F5BAB2
:10A450000178890605D5017821F020010170FFF708
:10A460001ABB0178490605D5017821F04001017039
:10A47000FFF74FBB0178090605D5017821F080016F
:10A480000170FFF771BB4178C90705D0417821F011
:10A4900001014170FFF78CBB4178890705D54178F0
:10A4A00021F002014170FFF7B1BB4178490705D5A2
:10A4B000417821F004014170FFF7D6BB41780907CC
:10A4C00005D5417821F008014170FFF7FBBB4178C9
:10A4D000C90605D5417821F010014170FFF720BC75
:10A4E0004178890605D5417821F020014170FFF7B8
:10A4F00045BC4178490605D5417821F040014170BD
:10A50000FFF76ABC4178090605D5417821F0800142
:10A510004170FFF78FBC8178C90705D0817821F0A1
:10A5200001018170FFF7B4BC8178890705D5817876
:10A5300021F002018170FFF7D9BC8178490705D568
:10A54000817821F004018170FFF7FEBC0178C90712
:10A5500005D0017821F001010170FFF75CBD704763
:10A5600040F26401C2F2000100281AD0D1ED020AC3
:10A5700091ED031A70EE810AC1ED020AD1ED001AC5
:10A58000B7EE001A01EEA01AD1ED011A61EEA01A81
:10A5900001EEA01AC0EE010AC1ED030A91ED030A13
:10A5A00070470020886081ED030AF7E710B50020AE
:10A5B00040F68401C2F2000108700121002001F080
:10A5C000E4F80028F9D010BD10B540F23410C2F202
:10A5D0000000007840062DD509200AF096F80028E2
:10A5E00028D040F23C00C2F200004078400621D55D
:10A5F00040F2FA00C2F200004078401F052819D24C
:10A6000046F22731C0F60101D1E800F0BDE8104064
:10A6100000F058B8BDE8104000F037B8BDE8104071
:10A6200000F009B8BDE8104000F02EB8BDE81040B9
:10A6300000F047B810BD10B541F66610C2F2000038
:10A64000B0F8603040F6DC50C2F20000048900220D
:10A6500040F2FA01C2F200014888A34210D2401C25
:10A6600080B2488003280AD94A8040F23C10C2F2E6
:10A670000000427822F0020242700620487010BDAD
:10A680000028FCD04A8010BD704741F66610C2F227
:10A690000000B0F8600040F6DC51C2F20001C98849
:10A6A00088420DD340F23C10C2F20000417841F0E4
:10A6B00002014170072040F2FA01C2F20001487025
:10A6C0007047704740F20210C2F20000417841F03A
:10A6D0000801417040F24010C2F20000017821F000
:10A6E00080010170062040F2FA01C2F200014870B8
:10A6F0007047000010B101287ED188E09649B1F87A
:10A700008620898978398A4224DB9349B1F88620EA
:10A71000898932398A421DDA9049C97B5F2919DA61
:10A720008F490988491C89B28D4A1180082953DB59
:10A73000002111808949C97B491C884AD17311467F
:10A74000C9696422B1FBF2F1844A12691144834A57
:10A75000116141E08049B1F88620898932398A4205
:10A760003ADB7E49C97B642936DA7C49C97B5F299B
:10A7700019DD7C490988491C89B27A4A118003296C
:10A780002ADB002111807549C97B491C734AD173AA
:10A790001146C9696422B1FBF2F1704A1269114491
:10A7A0006E4A116118E070490988491C89B26E4AE5
:10A7B0001180032910DB002111806849C97B491CE5
:10A7C000664AD1731146C9696422B1FBF2F1634A4A
:10A7D00012691144614A11616449098811B100216B
:10A7E000624A11806249098811B10021604A1180D2
:10A7F0006049098821B100E0AAE000215D4A11808A
:10A800005D49098811B100215B4A1180A1E05249DC
:10A81000B1F88820498978318A4224DC4E49B1F860
:10A820008820498932318A421DDD4C49C97B05297E
:10A8300019DD4E490988491C89B24C4A1180082902
:10A8400053DB002111804549C97B491E434AD1731E
:10A850001146C9696422B1FBF2F1404A1269511AEA
:10A860003E4A116141E03C49B1F8882049893231C2
:10A870008A423ADC3949C97B002936DD3749C97B30
:10A88000032919DA3A490988491C89B2384A1180E2
:10A8900003292ADB002111803049C97B491E2F4A38
:10A8A000D1731146C9696422B1FBF2F12B4A1269D6
:10A8B000511A2A4A116118E02E490988491C89B2A7
:10A8C0002C4A1180032910DB002111802349C97B08
:10A8D000491E224AD1731146C9696422B1FBF2F1C3
:10A8E0001E4A1269511A1D4A11611C49C97B01296E
:10A8F00015DC1949B1F88820498932318A420EDDC8
:10A900001649C97B154AD173002191601146C97B54
:10A91000D26951436422B1FBF2F1104A116110492E
:10A92000098811B100210E4A11800E49098811B120
:10A9300000210C4A11800C49098811B100210A4AF2
:10A9400011800E49098811B100210C4A118000E0E4
:10A9500000BF00BF70470000441A0020E81A002022
:10A96000FA010020FC010020FE010020020200206C
:10A97000040200200602002008020020000200203D
:10A9800010B101287ED1C5E0C649B1F88620898979
:10A9900064398A4224DBC349B1F88610C14A9289DE
:10A9A00091421DDAC049C97B5F2919DABF4909887C
:10A9B000491C89B2BD4A11800A2953DB002111804C
:10A9C000B949C97B491CB84AD1731146C969642287
:10A9D000B1FBF2F1B44A12691144B34A116141E08A
:10A9E000B049B1F88610AF4A928991423ADBAE493C
:10A9F000C97B642936DAAC49C97B5F2919DDAC49CA
:10AA00000988491C89B2AA4A118008292ADB002139
:10AA10001180A549C97B491CA34AD1731146C96954
:10AA20006422B1FBF2F1A04A126911449E4A1161FD
:10AA300018E0A0490988491C89B29E4A118004295E
:10AA400010DB002111809849C97B491C964AD173BB
:10AA50001146C9696422B1FBF2F1934A12691144AB
:10AA6000914A11618F49B1F886108E4A92899142BC
:10AA70001EDB8D49C97B64291ADA8F490988491C74
:10AA800089B200E00AE18C4A1180022910DB002122
:10AA900011808549C97B491C834AD1731146C96914
:10AAA0006422B1FBF2F1804A126911447E4A1161BD
:10AAB0007D49C97B632914DB7A49B1F88610794A4C
:10AAC000928991420DDA6321774AD1730021916016
:10AAD0001146C97BD26951436422B1FBF2F1724A3B
:10AAE00011617649098811B10021744A11807449B5
:10AAF000098811B10021724A11807249098811B187
:10AB00000021704A11807049098811B100216E4AF4
:10AB10001180C4E06349B1F88820498964318A42D0
:10AB200024DC6049B1F888105E4A528991421DDDEB
:10AB30005D49C97B052919DD60490988491C89B22D
:10AB40005E4A11800A2953DB002111805649C97BD6
:10AB5000491E554AD1731146C9696422B1FBF2F10D
:10AB6000514A1269511A504A116141E04D49B1F8F8
:10AB700088104C4A528991423ADC4B49C97B0029E2
:10AB800036DD4949C97B052919DA4D490988491C2F
:10AB900089B24B4A118008292ADB002111804249E1
:10ABA000C97B491E404AD1731146C9696422B1FB71
:10ABB000F2F13D4A1269511A3B4A116118E04149CC
:10ABC0000988491C89B23F4A1180042910DB002101
:10ABD00011803549C97B491E334AD1731146C96971
:10ABE0006422B1FBF2F1304A1269511A2E4A116106
:10ABF0002C49B1F888102B4A528991421CDC2A4911
:10AC0000C97B002918DD30490988491C89B22E4AC0
:10AC10001180022910DB002111802349C97B491EC4
:10AC2000214AD1731146C9696422B1FBF2F11E4A6F
:10AC30001269511A1C4A11611B49C97B012914DC94
:10AC40001849B1F88810174A528991420DDD012147
:10AC5000154AD173002191601146C97BD2695143D5
:10AC60006422B1FBF2F1104A11611049098811B157
:10AC700000210E4A11800E49098811B100210C4AA9
:10AC800011800C49098811B100210A4A11800A4932
:10AC9000098811B10021084A118000E000BF00BFFF
:10ACA00070470000441A0020E81A0020EA01002042
:10ACB000EC010020EE010020F0010020F201002054
:10ACC000F4010020F6010020F801002000B500F09A
:10ACD00003F800F0D9F800BD6548007805287AD25D
:10ACE000DFE800F0030A2B7EB500002061494862CE
:10ACF00001205F490870B2E05F48B0F888005E4903
:10AD00004989884218DC5C48B0F88C00022810DCC5
:10AD10005A480088401C80B25849088005280BDD3D
:10AD200000200880022052490870002051494862E2
:10AD300002E000205149088091E04F48B0F88600B9
:10AD40004D49898988421ADB4B48B0F88A000228AD
:10AD500012DC4948B0F88C0002280DDC4848008815
:10AD6000401C80B246490880052808DD0020088084
:10AD700003203F49087002E00020414908803E4816
:10AD8000B0F88A00022810DC3E480088401C80B2DF
:10AD90003C49088040F6B831884209DB0020394937
:10ADA000088004203249087002E0002035490880FC
:10ADB0003148B0F88C0002280EDD30480088401C75
:10ADC00080B22E490880052809DD00200880042073
:10ADD0002749087003E041E00020284908803EE050
:10ADE0002448406A18B92348C0692249486221486A
:10ADF000406A00EB400000013221B0FBF1F01D4938
:10AE000048620846406A0968884203D919480068C0
:10AE1000184948621748406A1649896A884203D32C
:10AE20001448806A134948621248406A1149C8614F
:10AE3000002048620846C07BC96948436421B0FBD2
:10AE4000F1F00C49086101200949087007E0002071
:10AE50000849486201200649087000E000BF00BFB1
:10AE60000448C06918B9034800680249C8617047BE
:10AE7000C9010020E81A0020441A00200C0200201A
:10AE80000A0200200E02002010B500200021334AE3
:10AE90001288521C92B2314B1A80052A00DC10BD78
:10AEA00000222E4B1A802E4A92692E4B9A4202D2D1
:10AEB0002B4A926900E02B4A11464FF49662B1FB8F
:10AEC000F2F2C2F57A7290B2254A12680A23B2FBF6
:10AED000F3F242436423B2FBF3F2214B9A621A4627
:10AEE000926ADB699A420CD21D4A926A1C4BDA6163
:10AEF0001A46D27BDB695A436423B2FBF3F2184B48
:10AF00001A61174A926AC2EB421303EB8212144B86
:10AF1000DB6903EBC30404EB0313B2EB830F0ED81E
:10AF20000F4A926AC2EB0212C2EBC2020C4BDB69FF
:10AF300003EBC30404EB0313B2EB830F0CD2084AF8
:10AF4000926A074BDA611A46D27BDB695A43642363
:10AF5000B2FBF3F2024B1A6100BFA0E7100200201F
:10AF6000E81A002080A9030000B5034613B1012BA5
:10AF700024D111E0134890F8830010B1012808D1C2
:10AF800003E01846FFF7FCFC04E01846FFF7B2FBAD
:10AF900000E000BF00BF12E00A4890F8840010B142
:10AFA000012808D103E01846FFF7EAFC04E0184640
:10AFB000FFF7A0FB00E000BF00BF00E000BF00BF44
:10AFC00000BD0000441A0020B0F1807F01D30120B1
:10AFD000704720F07F414FF0E020491E4161002181
:10AFE000816105210161016921F0020101610020F7
:10AFF0007047016821F001010160002101600161D9
:10B00000816041600021C4F20201884205D151F8FB
:10B01000A00F40F00F00086070471422C4F2020233
:10B02000904205D151F8A00F40F0F0000860704741
:10B030002822C4F20202904205D151F8A00F40F438
:10B040007060086070473C22C4F20202904205D151
:10B0500051F8A00F40F47040086070475022C4F2CD
:10B060000202904205D151F8A00F40F47020086010
:10B0700070476422C4F20202904205D151F8A00F39
:10B0800040F47000086070477822C4F202029042D7
:10B0900005D151F8A00F40F07060086070478C2215
:10B0A000C4F20202904205D151F8A00F40F0704066
:10B0B000086070474FF49461A0F18042C4F202012D
:10B0C000B2F501320AD040F21442C4F202029042B8
:10B0D00009D1086840F0F00008607047086840F047
:10B0E0000F00086070474FF48562C4F2020290427C
:10B0F00004D1086840F470600860704740F23C4238
:10B10000C4F20202904204D1086840F47040086022
:10B1100070474FF48A62C4F20202904204D1086878
:10B1200040F470200860704740F26442C4F20202AA
:10B13000904204D1086840F47000086070474FF4F2
:10B140008F62C4F20202904204D1086840F070603D
:10B150000860704740F28C42C4F202029042F8D17B
:10B16000086840F0704008607047002904D001680A
:10B1700041F0010101607047016821F001010160A7
:10B18000704730B5026822F47F6323F4FE230C6A13
:10B190008A682243D1E904452C4322438C69224327
:10B1A000CC6922434C6A22438C6A22430C6B2243B3
:10B1B0004C6B22431A430260CA6802610A688260CB
:10B1C0004A6842604FF48062C4F20202904205D2A3
:10B1D000C86AA821C4F20201086030BDC86A4FF4F1
:10B1E0009561C4F20201086030BD002A01D0C86038
:10B1F00070470020C86070471F280BD240F6D60168
:10B20000C2F200010A7860F304020A7001215220A0
:10B2100000F0BBBA0020704740F6D501C2F2000131
:10B220000A7860F304120A700121512000F0ADBACF
:10B2300040F68401C2F20001022805D191F85320A2
:10B2400022F0010281F8532011F8512F60F383029C
:10B250000A700321512000F098BA000050B1012873
:10B2600013D10B49097821B901210A4A1170084A02
:10B2700011700BE006490978012905D10521054A1D
:10B2800011700021024A117000E000BF00BF70473A
:10B29000FD0200202B02002050B1012813D10B49E0
:10B2A000097821B901210A4A1170084A11700BE08E
:10B2B00006490978012905D10521054A11700021A7
:10B2C000024A117000E000BF00BF7047D9020020A1
:10B2D0002A020020002802D00320FFF7A9BF002087
:10B2E000FFF7A6BF50B1012813D10B49097821B946
:10B2F00001210A4A1170084A11700BE006490978C9
:10B30000012905D10521054A11700021024A117059
:10B3100000E000BF00BF70479D020020290200200E
:10B3200070B502462DED048B222540F68400C2F252
:10B330000000017CC37B41EA032100EB4200827CD8
:10B34000407C42EA00240846FBF791F941EC100BDF
:10B3500049F69A1049F69911C9F69910C3F6B971D0
:10B3600041EC180B51EC100B53EC182BFBF78DF83C
:10B37000FBF79DF909EE100A2046FBF778F953EC2C
:10B38000182BFBF782F8FBF792F900EE900A80EE9B
:10B39000890A40F26000C2F200000088B7EE001A8D
:10B3A00000EE900A0020C4F27A40F8EE600A60EEE7
:10B3B000200A31EE400A80EE801A00EE900A81EEFB
:10B3C000200A002445F6F460C0F601000CE000EB12
:10B3D0008401D1ED000AF4EEC00AF1EE10FA02DBAE
:10B3E000641CE4B200E02546AC42F0D300EB8501DA
:10B3F000D1ED000A691E00EB810030EEC00A90ED2D
:10B40000001A30EEC11AC0EE010A45F66C60C0F6B3
:10B41000010050F82500B1EE041A00EE100AB8EE53
:10B42000C00A00EEC10ABDEC048B70BD10B540F639
:10B430008400C2F20000817B407B41EA0020FBF7E0
:10B4400016F941EC100B4FF61A2045F25811CBF6C5
:10B450002700C3F6CF7141EC110B51EC100B53ECEC
:10B46000112BFBF712F841EC100B4CF6CD404FF2CC
:10B47000CC41CCF6CC40C4F2700141EC110B51EC44
:10B48000100B53EC112BFAF7FAFFFBF710F900EE53
:10B49000100A10BD40F68400C2F20000C178807826
:10B4A00041EA002000B200EB800000EE900AB8EE06
:10B4B000E01AC1EE000AB0EE600A704710B52DED3B
:10B4C000028B40F68400C2F2000001794279090340
:10B4D000807941EA021141EA1014200303D544F0B7
:10B4E0007F6444F0704410EE100AFBF7CDF841EC95
:10B4F000180B2046FBF7AAF841EC100B46F6F100BA
:10B500004FF6B501C8F6E300C3F6946141EC110BA8
:10B5100051EC100B53EC112BFAF7B7FF41EC100B69
:10B520004FF480410020C4F28F0141EC110B51EC2B
:10B53000100B53EC112BFAF7A8FF53EC182BFBF769
:10B5400016F8FBF7B4F8BDEC028B00EE100A10BD44
:10B5500010B540F68400C2F20000017CC07B41EAD5
:10B560000020FBF784F841EC100B49F69A1049F6DD
:10B570009911C9F69910C3F6B97141EC110B51EC50
:10B58000100B53EC112BFAF780FFFBF790F800EE4D
:10B59000100AF6EE000A30EE200ABCEEC00A10EEE9
:10B5A000100A80B210BD10B540F68400C2F200004F
:10B5B000017AC07941EA0020FBF759F841EC100B01
:10B5C00049F699114FF02040C4F2290141EC110BCA
:10B5D00051EC100B53EC112BFAF757FFFBF767F800
:10B5E00000EE100AF6EE000A30EE200ABCEEC00AA9
:10B5F00010EE100A10BD10B50446172C03D9002018
:10B6000000EE100A10BD40F68401C2F2000101EB09
:10B610004400827F407F42EA002091F86D10C90704
:10B6200019D000B2FBF712F841EC100B44F22D30A8
:10B6300043F2E261CEF61C30C3F62A7141EC110BE5
:10B6400051EC100B53EC112BFAF71FFFFBF72FF8FF
:10B6500000EE100A17E0FBF70AF841EC100B44F279
:10B660002D3043F2E261CEF61C30C3F61A7141EC84
:10B67000110B51EC100B53EC112BFAF706FFFBF7F3
:10B6800016F800EE100A2046FEF76AFFF0EE400AB8
:10B690000020C4F27A4001EE100AB6EE000A00EE75
:10B6A000810A10BD10B540F68400C2F20000017B93
:10B6B000C07A41EA0020FAF7DAFF41EC100B49F6B4
:10B6C00099114FF02040C4F2290141EC110B51ECCB
:10B6D000100B53EC112BFAF7D8FEFAF7E8FF00EE47
:10B6E000100AF6EE000A30EE200ABCEEC00A10EE98
:10B6F000100A10BD10B540F68400C2F20000817A35
:10B70000407A41EA0020FAF7B2FF41EC100B49F60B
:10B7100099114FF02040C4F2290141EC110B51EC7A
:10B72000100B53EC112BFAF7B0FEFAF7C0FF00EE46
:10B73000100AF6EE000A30EE200ABCEEC00A10EE47
:10B74000100A10BD10B5292245F64061C0F601016E
:10B7500040F6D500C2F20000FAF7CCFD2921BDE881
:10B760001040512000F011B810B50A4640F684018F
:10B77000C2F20001014401F096FE08B1012010BDA3
:10B7800005200AF048F9002010BD10B50A4640F621
:10B790008401C2F20001014402F0AEF808B10120B8
:10B7A00010BD05200AF037F9002010BD2DE9F04743
:10B7B000002040F64425C2F2000540F62E3CC2F2BD
:10B7C000000C0CF15E08BCF84060B8F9407040F223
:10B7D0008804C2F20004217841F66613C2F2000325
:10B7E00017E035F81020B6F5806F00D117B172431D
:10B7F00007EBA2223CF8109038F910A009FB02F9DF
:10B800000AEBA922002A00DC002223F81020401CA9
:10B81000C0B28842E5D3202908D24EF6496003E041
:10B8200023F81100491CC9B22029F9D3B3F86400E8
:10B8300040F60A46C2F20006A6F12007D8B1002061
:10B8400036F81020A2B337F81010B3F864C001FB2B
:10B850000CF14FEAA13C0CEBE13C521E0CEB6141B8
:10B8600033F812C0ACEB010123F81210401CC0B237
:10B870001028E5D31CE0B3F86600C8B1002036F804
:10B880001020AAB137F81010B3F866C001FB0CF114
:10B89000521E4FEAE13833F812C00CEBA13C08EB22
:10B8A0006141614423F81210401CC0B21028E6D355
:10B8B000D5F89400002558B1A088411CA1803C28EF
:10B8C00003D3A5800B2008F051FEE580BDE8F0878A
:10B8D0003B2008F04BFE48B1E088401C80B2E0807D
:10B8E000C82803D3E580232008F040FEA580EDE7BB
:10B8F000F0B5002247F6FF73002600270024002041
:10B9000041F66615C2F2000540F28801C2F200015C
:10B9100091F800C00CE035F810100C448A4201D2B6
:10B920000A4606468B4201D90B460746401CC0B268
:10B930006045F0D340F62E30C2F20000B0F844006B
:10B940006043810A40F68C30C2F20000B0F9440036
:10B9500000EB4004C4EBC01001EBC00040F64421F2
:10B96000C2F200010A24C96C4035B1FBF4F1E98749
:10B9700041F698114843000C68812A806B80D01AE8
:10B980002881761CAE807F1CEF80F0BD40F64420FD
:10B99000C2F2000090ED100ABDEEC00A10EE100ACF
:10B9A00040F28801C2F20001002802DA42424A81D4
:10B9B00000E048814FF47A71484340F29601C2F2A8
:10B9C0000001098890FBF1F040F62E32C2F200022D
:10B9D00002F15E01002810DA10F5FA6F0BDCB2F804
:10B9E00048204243B1F9480000EB4001C1EBC010D0
:10B9F00002EBC00011E080020FE0B0F5FA6F0BDB44
:10BA0000B2F846204243B1F9460000EB4001C1EBD9
:10BA1000C01002EBC00000E080028012002264230C
:10BA200041F66611C2F20001002805DD90FBF3F03B
:10BA300021F8640F4A80704721F8642F404290FB40
:10BA4000F3F04880704770B5002247F6FF7300247A
:10BA50000025002041F66616C2F2000606EB400102
:10BA6000B1F84C1039B18A4201D20A4604468B42E1
:10BA700001D90B460546401CC0B20828EED326F873
:10BA8000602F738040F28800C2F20000447085701D
:10BA900070BD4FF42F7141F69610C2F20000818301
:10BAA000C183018441848184C1840185418540F63C
:10BAB0004422C2F20002D2F894100180090C4180A5
:10BAC00040F21201C2F200010988818040F21401A3
:10BAD000C2F200010988C18040F21601C2F20001E1
